:10000000FFCF298D1DE99270F0D6315305D3CA4038
:10001000466C79616E64616E63652052414E444F57
:100020004D2041565220484558207C2032303236EF
:100030002D30382D3035207C2053495A453D3531FF
:100040003242207C20524553455440303D464F5269
:1000500045564552204C4F4F50B6E38067791A8180
:10006000B4950F9199CEF510DCE378C390BCD84ECF
:100070004466C2F7F65CF7DA7CB53A42BA85209A54
:10008000B74EF278C265BEE2546402376529E62FA6
:10009000DEBFBD19524C12FB574BB6069AC8843FBF
:1000A0000190CFBDE1EE8EF42817FC67BC0961C05A
:1000B00016B52DF4BA1C46E777AF20D9C16535993E
:1000C00067A02EA1F0939EBBD33B5F9CA7805F856A
:1000D000BA6B46F4B16E5891A7701B91D4B5C7574F
:1000E0003FCD3E7C33EEEC32B6D9861169A5DE6E8B
:1000F0006B98E950F898624CFC0F75AF2ADE3130EE
:100100005DEB4C06564EAEC184C70429465279E5D4
:10011000DEC6B4B674193251410CFCF5E02634AB9E
:10012000D024D1C130E51A5BB3CF10AF2469C69D8E
:100130000505D52B4936E44A317AF6C2194B776268
:10014000FC1C7B14CDCCE0907FABC39B8FB21FBA5D
:10015000758F78D5A223FDA248619CB30FB23FF4FE
:10016000EF6BD0BD18E56B6881839179A4DC140432
:100170007AA171DAECC513F684BFDEE387A9468D58
:10018000A828B0B131B276D58660FB0B9ABD212D7F
:10019000014DC945ACC4EF714B35A883D5ACD4A58E
:1001A000D7234ACAFA349899E12D0AB7D7C8D50F90
:1001B00083C63BE498AD46C576C3C3F75DBDFBDDA2
:1001C000DEC0DFD96B8DF8C6F9BF3311B65979E3BC
:1001D000DFEB92DB20BDDB466C79616E64616E63A0
:1001E0006520454E44204F46203531324220494D4E
:1001F000414745207C20323032362D30382D303585
:00000001FF
